:100000000C943A000C9457000C9457000C94570031
:100010000C9457000C9457000C9457000C94570004
:100020000C9457000C9457000C9457000C945700F4
:100030000C9457000C9457000C9457000C945700E4
:100040000C9457000C9457000C9478010C945700B2
:100050000C9457000C9457000C9457000C945700C4
:100060000C9457000C9457006364696E6F7073753D
:1000700078585B0011241FBECFEFD8E0DEBFCDBFA4
:1000800012E0A0E0B1E0E2E2F7E102C005900D92DB
:10009000A831B107D9F728E0A8E1B2E001C01D926C
:1000A000A53EB207E1F70E9404010C948F0B0C945B
:1000B0000000CF92DF92EF92FF920F931F93CF93A6
:1000C000DF93CDB7DEB7C058D1090FB6F894DEBFC5
:1000D0000FBECDBF009739F0FC0120817C0110E0FC
:1000E00000E0211113C0C058DF4F0FB6F894DEBFF7
:1000F0000FBECDBFDF91CF911F910F91FF90EF9079
:10010000DF90CF9008950F5F1F4F7A01A7014F5FD7
:100110005F4FF70120812F7DD1F10F31110599F744
:10012000BC016E01F1E6CF0ED11CA801C6010E94F0
:100130004205F601E00FF11F1082B7012FEFE21A1E
:10014000F20AFB0180818032C1F34FE550E0CE011D
:1001500001960E945405A1961FAEA19798E3E92E3F
:1001600091E0F92E10E000E0F701608171816115E6
:10017000710591F4DF92CF928EE091E09F938F937F
:100180000E9485050F900F900F900F90ACCF011536
:10019000110509F4A8CFC4CFC6010E944B05F4E0B5
:1001A000EF0EF11C892B71F4000F111F000F111FAE
:1001B000F801E85CFE4F0280F381E02DCE0101964C
:1001C000099591CF0F5F1F4FCFCF009751F0FC01E2
:1001D0002081222331F02B3711F40C942C010C9444
:1001E000590008950E94E501009711F00E94120243
:1001F0000E941C0281E008950E94C2016AE070E042
:1002000080E090E00C94050214BE0FB6F894A89517
:1002100080916000886180936000109260000FBE42
:100220000E94F200882321F078940E94FC00FDCF08
:1002300090E080E00895CF93C82F8A3019F48DE0C4
:100240000E941B018091C00085FFFCCFC093C600B7
:1002500090E080E0CF910895EF92FF920F931F936B
:10026000CF93DF93CDB7DEB7A0970FB6F894DEBF7C
:100270000FBECDBF009751F17C0164E471E00E9494
:1002800063058C016AE471E0C7010E9463050115F2
:100290001105E1F00097D1F0D80115969E012F5F6E
:1002A0003F4F50E089014D91423211F05F31D9F456
:1002B000F801E50FF11D108204960E94240561E00B
:1002C000892B09F460E0C8010E941C04A0960FB6B7
:1002D000F894DEBF0FBECDBFDF91CF911F910F917C
:1002E000FF90EF9008955F5FF90141939F01DBCF8D
:1002F0001F920F920FB60F9211242F933F934F939B
:100300005F936F937F938F939F93AF93BF93EF937D
:10031000FF938091C600E0919A028A3011F08D30EF
:10032000B1F4EE23F1F0F0E0E556FD4F10824FE717
:1003300050E06BE972E08AE192E00E94540510926D
:10034000990281E08093190210929A020AC0EF3755
:10035000D8F791E09E0F90939A02F0E0E556FD4F9A
:100360008083FF91EF91BF91AF919F918F917F918A
:100370006F915F914F913F912F910F900FBE0F9012
:100380001F90189580911902882341F0109219024C
:100390008AE192E00E94E50081E0089580E00895FE
:1003A0005F934F937F936F939F938F938FE491E02D
:1003B0009F938F930E9485058DB79EB708960FB6C1
:1003C000F8949EBF0FBE8DBF0895809118028111D1
:1003D00019C01092C50081E28093C4008091C000D2
:1003E00082608093C00088E98093C10086E080939A
:1003F000C20080E091E09093E2088093E10881E000
:100400008093180288E991E008956150710981098B
:10041000910908F40895EFE9FFE03197F1F700C082
:100420000000F3CF90931C0380931B0308958091E9
:100430001B0390911C0308950E941702009731F04E
:10044000DC01ED91FC91309709F009940895EF9249
:10045000FF921F93CF93DF937C01162F0E94170208
:100460000097F1F0DC011696ED91FC913097C1F008
:10047000612FC7010995EC01892B59F480E991E0BE
:100480000E949B05412F50E0B70183E991E00E9453
:10049000D001CE01DF91CF911F91FF90EF90089591
:1004A000C1E0D0E0F6CF8F929F92AF92BF92CF92F1
:1004B000DF92EF92FF921F93CF93DF931F92CDB7FE
:1004C000DEB76C015B010E941702009709F45AC065
:1004D000DC011496ED91FC91309709F453C0198218
:1004E000BE016F5F7F4FC60109957C01892BE1F545
:1004F000C6010E942A04182F98E7892E91E0992EB0
:10050000D4018D919C91009719F430E020E00BC04C
:10051000B6010E944B05892B61F4F40124813581D9
:100520002130310551F089818111182FD5011C939B
:100530000DC0F8E08F0E911CE3CF8981811101C0BD
:1005400010E01170F501108391E08927882361F094
:1005500041E050E02130310511F450E040E0B601B7
:1005600083E991E00E94D001C7010F90DF91CF9104
:100570001F91FF90EF90DF90CF90BF90AF909F9032
:100580008F900895EE24E394F12CEECFCF92DF927A
:10059000EF92FF920F931F93CF93DF936C01E09044
:1005A0001E03CFE1D3E010E0E1120DC0F12C00E01A
:1005B0008F2D902FDF91CF911F910F91FF90EF9092
:1005C000DF90CF900895FC2E0D2FB601CE010E9432
:1005D0004B05AE96892B61F31F5FE6CF009799F02C
:1005E000FC0180819181009771F020911D032223ED
:1005F00069F00E94C602009761F0FC0180A191E0C1
:10060000892790E0089582E090E0089587E090E0E7
:10061000089581E090E00895CF93DF93009739F13A
:100620006115710521F120911D03222319F1EB01C0
:100630000E94C602FC01892B01F180A18823E9F008
:1006400097A120A531A5232B79F4A5A1B6A18C9162
:10065000892391E009F490E09883888184A790E051
:1006600080E0DF91CF910895A3A1B4A1F0CF82E003
:1006700090E0F7CF87E090E0F4CF81E090E0F1CF19
:10068000CF93009709F120911D03222301F1C62F7A
:100690000E94C602FC01892BE9F080A18823D1F0D9
:1006A00080A591A50197C9F4A3A1B4A187A19C91AC
:1006B000CC2339F0892B8C93C4A790E080E0CF91B4
:1006C000089580958923F7CF82E090E0F8CF87E006
:1006D00090E0F5CF81E090E0F2CF88E090E0EFCFBE
:1006E0003F924F925F926F927F928F929F92AF92C2
:1006F000BF92CF92DF92EF92FF920F931F93CF930F
:10070000DF9380911D03811113C081E080931D034D
:1007100068E7E62E61E0F62E66246394712CEEE223
:100720003E2E44244394F70180819181892B91F4DA
:10073000DF91CF911F910F91FF90EF90DF90CF90BD
:10074000BF90AF909F908F907F906F905F904F90F1
:100750003F900895F7018681823041F143E2842E73
:10076000912C05E210E054E2C52ED12C833041F4E7
:1007700029E2822E912C0BE210E03AE2C32ED12C1A
:10078000F7018781530101C0AA0C8A95EAF78A2DE7
:10079000809522813381F60190812130310579F4F1
:1007A0009A299083F8019081892314C086E2882ECB
:1007B000912C08E210E097E2C92ED12CE1CF9823CA
:1007C0009083F70124813581F8012130310559F7F3
:1007D00080818A29808350901E03FFE1F51530F156
:1007E000F70160817181539CE0011124C15EDC4FEF
:1007F0004FE150E0CE010E9454051F8E48A2DAA2BC
:10080000C9A21CA30BA39EA28DA2AFA2F701828155
:10081000938199A788A7848195819BA78AA71CA605
:10082000019741F44DA6539450921E03F8E0EF0E49
:10083000F11C79CF1DA6F7CFCF9320911D03222362
:1008400039F0C62F0E94C602009711F0FC01C5A71F
:10085000CF9108959C0180911D03882349F0C9011F
:100860000E94C602009719F0FC0185A5089580E05A
:100870000895CF92DF92EF92FF920F931F93CF9341
:10088000DF936C01E0900F02F090100201E112E0A2
:10089000D0E0C0E0EC16FD0639F0F80161917191ED
:1008A0008F016115710519F490E080E009C0C6015F
:1008B0000E944B05892B11F02196ECCF81E090E04E
:1008C000DF91CF911F910F91FF90EF90DF90CF902C
:1008D00008950F931F93CF93DF93CDB7DEB7A29701
:1008E0000FB6F894DEBF0FBECDBF1AA219A29E01AB
:1008F0002F5D3F4F3F932F938E010F5F1F4F1F932D
:100900000F9320EA31E03F932F939F938F930E94A0
:10091000C6050FB6F894DEBF0FBECDBF02977CF4BC
:1009200088EA91E00E949B05A2960FB6F894DEBF7C
:100930000FBECDBFDF91CF911F910F910895C801D8
:100940000E943904892B69F41F930F9386EC91E080
:100950009F938F930E9485050F900F900F900F909B
:10096000E3CF61E089A19AA1892B09F460E0C80175
:100970000E9427020097C1F29F938F938AED91E026
:10098000E7CF0F931F93CF93DF93CDB7DEB7A19738
:100990000FB6F894DEBF0FBECDBF8E010F5F1F4FA5
:1009A0001F930F9322EE31E03F932F939F938F93EA
:1009B0000E94C6050F900F900F900F900F900F9010
:1009C000181619067CF087EE91E00E949B05A1960F
:1009D0000FB6F894DEBF0FBECDBFDF91CF911F9150
:1009E0000F910895C8010E943904892B69F41F935F
:1009F0000F9386EC91E09F938F930E9485050F9053
:100A00000F900F900F90E3CF19A2BE016F5D7F4F43
:100A1000C8010E945302009791F489A11F928F93FD
:100A20001F930F938EEF91E09F938F930E94850504
:100A30000F900F900F900F900F900F90C8CF9F9333
:100A40008F938AED91E0D7CFFC0188279927E8940E
:100A500021912032E9F3293010F02E30C8F32B32E7
:100A600041F02D3239F4689404C00E947D05820F54
:100A7000911D219120532A30C0F31EF49095819549
:100A80009F4F0895FB01DC0102C001900D9241507F
:100A90005040D8F70895FB01DC018D910190801939
:100AA0000110D9F3990B0895FB01DC01415050402E
:100AB00048F001900D920020C9F701C01D924150ED
:100AC0005040E0F70895FB0151915523A9F0BF0173
:100AD000DC014D9145174111E1F759F4CD01019029
:100AE000002049F04D9140154111C9F3FB0141111E
:100AF000EFCF81E090E0019708957AE0979F902DE5
:100B0000879F802D910D11240895B0E0A0E0EBE8BF
:100B1000F5E00C94680BAE014B5F5F4FFA016191F9
:100B20007191AF018091E1089091E2080E94DF0588
:100B3000E2E00C94840B0F931F93CF93DF93E0912B
:100B4000E108F091E2082381EC0110E000E021FDD2
:100B500008C00FEF1FEF14C00995892B11F00FEF9C
:100B60001FEF89916091E1087091E208DB0118960E
:100B7000ED91FC918111F0CF8AE00995892B49F71D
:100B8000C801DF91CF911F910F910895AEE0B0E0C1
:100B9000ECECF5E00C94680B85E08C838B899C89E8
:100BA0009A838983AE01495E5F4F6D897E89CE014C
:100BB00001960E9444092E96E2E00C94840BABE06F
:100BC000B0E0E5EEF5E00C94580B7C013B018A01A6
:100BD000FC0117821682838181FFC8C1CE01019674
:100BE0005C01F7019381F30193FD859193FF81915E
:100BF0003F01882309F453C1853239F493FD85916F
:100C000093FF81913F01853229F4B70190E00E9462
:100C1000AF0AE7CF912C212C312CFFE1F31538F0EE
:100C20008B3211F190F4803209F1833229F137FCD3
:100C30003CC020ED280F2A3050F536FE20C08AE057
:100C4000989E200D1124922E06C08D3291F0803393
:100C500071F7689430F8F30193FD859193FF8191CA
:100C60003F018111DACF21C0689431F8689432F8DD
:100C7000F2CF689433F8EFCF689434F8ECCFEAE021
:100C80002E9E200D1124222E689435F8E4CF8E324A
:100C900029F436FC04C1689436F8DDCF8C3619F49B
:100CA000689437F8D8CF8836B1F2982F9F7D955445
:100CB0009330E0F08336A1F18337C1F1833509F039
:100CC00063C02801F2E04F0E511CF801C080D180B2
:100CD000692D70E036FC02C06FEF7FEFC6010E9405
:100CE0005D0A4C01689437F882010AC00C5F1F4FFF
:100CF000FFE3F98388248394912C6501E89437F805
:100D000033FE2DC0522C8114910471F5552009F445
:100D100068CFB70180E290E00E94AF0A5A94F6CF04
:100D2000F801808189830E5F1F4FE4CF2801F2E034
:100D30004F0E511CF801C080D180692D70E036FC47
:100D400002C06FEF7FEFC6010E94680A4C0182016A
:100D5000D5CFB70180E290E00E94AF0A2A94281410
:100D6000190409F0B0F7CECFF60137FC859137FEB4
:100D700081916F01B70190E00E94AF0A51105A941F
:100D8000F1E08F1A9108BFCF843619F0893609F047
:100D900077C0F80137FE6BC06081718182819381D9
:100DA0000C5F1F4FF32DFF763F2E97FF09C09095E4
:100DB0008095709561957F4F8F4F9F4F689437F85E
:100DC0002AE030E0A5010E94F70AC82ECA188C2C30
:100DD000432C36FE0CC0E89440F8C91440F434FEAD
:100DE00005C032FC03C0F32DFE7E4F2E892C44FE3D
:100DF00095C0FE01EC0DF11D8081803309F087C0A4
:100E0000242D297E422E842D8870582E43FC95C0B7
:100E100040FE8FC09C2C821418F42C0C922C981835
:100E200044FE91C0B70180E390E00E94AF0A42FE09
:100E300009C088E790E041FE02C088E590E0B70174
:100E40000E94AF0AC91408F48AC0CA94D12C9FEF3B
:100E5000C91AD90ACA0CDB1CF60182916F01B701CD
:100E600090E00E94AF0AAC14BD04B1F74FCF60818F
:100E70007181072E000C880B990B0E5F1F4F92CFCC
:100E8000D32CE894D4F82AE030E0853739F1232DCB
:100E9000297FD22E8F3601F148F48835A9F0F70169
:100EA000868197812B96E2E10C94740B803749F090
:100EB0008837A9F7D4FE02C06894D2F820E130E068
:100EC0000DC06894D4F8F6CF34FE03C0822F86603C
:100ED000D82E20E132E002C028E030E0F801D7FE51
:100EE0000FC060817181828193810C5F1F4FA501CA
:100EF0000E94F70AC82ECA183D2CE89437F867CF2D
:100F00006081718190E080E00E5F1F4FF0CF42FC66
:100F100002C0839478CF8394839475CF842D867890
:100F200009F471CFF6CFB70180E290E00E94AF0ADA
:100F300083948214C0F3512C73CF522C581882140E
:100F400008F46ECFF8CF842D867809F47BCF8BE23E
:100F500041FE80E247FC8DE2B70190E071CFB7011E
:100F600080E390E00E94AF0A9A946CCF8FEF9FEFDE
:100F700099CF20FD09C0FC0123FD05C022FF02C05E
:100F80007383628351834083089544FD17C046FDF7
:100F90001DC0DB01FC01AA0FBB1FEE1FFF1F109439
:100FA000D1F76A0F7B1F8E1F9F1F660F771F881F49
:100FB000991F620F711D811D911D089533E0660F09
:100FC000771F881F991F3150D1F7F3CF34E0F7CF47
:100FD0000F931F93CF93DF938C01C8010E94730A74
:100FE000EC0197FD08C00E94490A892BB1F7B801AE
:100FF000CE010E94DF0ACE01DF91CF911F910F91A8
:1010000008958F929F92AF92BF92EF92FF920F93AB
:101010001F93CF93DF938C01D62F7A01B22E0E94BB
:10102000730A9C0133272B32310529F02D3231050B
:10103000A9F46894B7F8D15061F480E0DF91CF91C2
:101040001F910F91FF90EF90BF90AF909F908F9066
:101050000895C8010E94730A97FDEFCFCB2DCD7F75
:101060002B2D2073F9F48033E9F4AA24AA94AD0E51
:1010700089F0C8010E94730A97FD0CC0282F2F7DAC
:10108000283561F4C264D25029F0C8010E94730A65
:1010900097FF08C0812C912C54011BC0B6FE2BC0B9
:1010A000C260DA2D812C912C540120ED280F2830BC
:1010B00028F1C4FD09C02A3008F1C6FF05C02F7D04
:1010C0003FEE320F3630C8F0B8010E94DF0AC1FF90
:1010D000B4CFC7FF08C0B094A09490948094811CB2
:1010E000911CA11CB11C2C2FB501A401C7010E94A9
:1010F000B90781E0A3CFC261D4CF27504C2FC501DF
:10110000B4010E94C5074B015C01C260D15009F3D4
:10111000C8010E94730A97FFC8CFD9CFA0E2B0E000
:10112000E4E9F8E00C945D0B5C01962E7A01CE01A7
:1011300001966C0180E2F60111928A95E9F7F501BA
:10114000B381890130E020E0712C812CA0E041E0E6
:1011500050E0F801B3FD8591B3FF8191982F8F0185
:10116000811107C010E000E0C801A096EDE00C94EA
:10117000790B8E3519F42115310541F1A2171306AB
:101180004CF48D3549F18D3229F4811006C0882444
:1011900083941DC0882009F464C0E92FE695E69584
:1011A000E695EC0DFD2DF11D892F8770BA0101C068
:1011B000660F8A95EAF78081682B6083791651F073
:1011C000971510F49F5FE9CF9150E7CFA1E02F5F13
:1011D0003F4FBFCF812CFBCF882019F08E818062DA
:1011E0008E83AA2359F0F6019E012F5D3F4F808127
:1011F000809580833196E217F307C9F7882483949A
:10120000C5010E94730A97FD16C0E82FE695E69582
:10121000E695EC0DFD2DF11D208130E0AC0147700D
:10122000552702C0359527954A95E2F720FD06C05F
:10123000B5010E94DF0A882069F094CFE114F1041F
:1012400029F0F7018083C70101967C019A94812CD3
:101250009110D6CFE114F10409F486CFF701108282
:1012600083CFE82FE695E695E695EC0DFD2DF11D73
:10127000982F9770BA0101C0660F9A95EAF790818E
:10128000692B6083782EA3CFB0E0A0E0EAE4F9E018
:101290000C945B0B6C01EB015A01FC011782168266
:1012A000512CF601E380FE01E3FC8591E3FE819180
:1012B000182FEF018823E9F090E00E94490A892B5A
:1012C00021F0C6010E94E807ECCF153241F4FE017F
:1012D000E3FC1591E3FE1191EF01153269F4C601AB
:1012E0000E94730A97FD8EC01817D9F2B6010E94AA
:1012F000DF0A852D90E08AC000E01A3231F4E3FC69
:101300001591E3FE1191EF0101E0F12C20ED210F89
:101310002A3048F101FF37C0FF2059F31836B1F1E8
:101320001C3609F43DC0112321F3612F70E088E6DB
:1013300090E00E94520A892BE1F2912C812C00FD51
:1013400006C0F50180809180C50102965C011E36C1
:1013500079F5F6014681578170E060E0202FC401E5
:101360000E94B9079ECF02606F2D70E090E080E090
:1013700040E20E94C507F62EFE01E3FC1591E3FE54
:101380001191EF01C3CFFF24FA94C8CFFE01E3FC13
:101390001591E3FE1191EF01183609F0C4CF0860F2
:1013A0000460FE01E3FC1591E3FE1191EF01BBCF58
:1013B0001336C1F401FD02C0FF24F394C6010E945C
:1013C000730A97FD1FC08114910429F0F4018083F2
:1013D000C40101964C01FA94F110F0CF00FD61CFE9
:1013E00053945FCF1B35B9F49E01A4016F2DC60144
:1013F0000E948E08EC01892B89F7F60183818073A6
:1014000009F477CF8FEF9FEF511073CFCDB7DEB7D1
:10141000EFE00C94770BC6010E94E80797FDF2CF2E
:101420001F36A9F130F4143641F0193639F0006452
:1014300005C01337B9F01537D1F70062202FA4018A
:101440006F2DC6010E9401088111C8CFD6CF81142B
:10145000910429F0F4016082C40101964C01FA94D0
:10146000FF2071F0C6010E94730A3C0197FD08C07D
:101470000E94490A892B59F3B601C3010E94DF0A71
:101480008114910409F4AACFF4011082A7CF00615E
:10149000D5CF91110C94550B803219F0895085509D
:1014A000C8F70895FC010590061621F00020D9F731
:1014B000C00108953197CF010895FC010590615056
:1014C00070400110D8F7809590958E0F9F1F08955A
:1014D000FC016150704001900110D8F78095909503
:1014E0008E0F9F1F0895CF93DF93EC012B8120FF78
:1014F0001AC026FF0CC02F7B2B838E819F81019603
:101500009F838E838A8190E0DF91CF91089522FF9F
:1015100018C0E881F9818081082E000C990B009792
:1015200029F420622B838FEF9FEFEECF3196F98362
:10153000E8832E813F812F5F3F4F3F832E83992782
:10154000E3CFEA85FB85099597FFF3CF2B810196C1
:1015500021F080E2822B8B83E6CF80E1FBCF0F93DB
:101560001F93CF93DF93182F092FEB018B8181FD00
:1015700009C01FEF0FEF812F902FDF91CF911F91A7
:101580000F91089582FF14C02E813F818C819D812F
:10159000281739073CF4E881F981CF010196998336
:1015A000888310838E819F8101969F838E83E3CFF2
:1015B000E885F985812F0995892BA1F3DACFFB0105
:1015C000238120FF11C026FD0FC08F3F980771F0C7
:1015D00082832F7D20642383268137812150310926
:1015E00037832683992708958FEF9FEF0895FA0197
:1015F000AA27283051F1203181F1E8946F936E7F52
:101600006E5F7F4F8F4F9F4FAF4FB1E03ED0B4E042
:101610003CD0670F781F891F9A1FA11D680F791F83
:101620008A1F911DA11D6A0F711D811D911DA11D94
:1016300020D009F468943F912AE0269F11243019A4
:10164000305D3193DEF6CF010895462F4770405D3F
:101650004193B3E00FD0C9F7F6CF462F4F70405DEE
:101660004A3318F0495D31FD4052419302D0A9F749
:10167000EACFB4E0A6959795879577956795BA9543
:10168000C9F700976105710508959B01AC010A2E09
:1016900006945795479537952795BA95C9F7620FE0
:1016A000731F841F951FA01D0895992788270895EB
:1016B0002F923F924F925F926F927F928F929F9262
:1016C000AF92BF92CF92DF92EF92FF920F931F9350
:1016D000CF93DF93CDB7DEB7CA1BDB0B0FB6F89401
:1016E000DEBF0FBECDBF09942A88398848885F8441
:1016F0006E847D848C849B84AA84B984C884DF80B2
:10170000EE80FD800C811B81AA81B981CE0FD11D95
:101710000FB6F894DEBF0FBECDBFED010895F8946B
:02172000FFCFF9
:1017220000000002000000001B0100000000455202
:101732005220756E6B6E6F776E20746F6F6C202502
:10174200730A006770696F5F77726974650067700A
:10175200696F5F7265616400230169042E01C1042F
:10176200000000002270223A22002276223A007BF8
:101772002274223A222573222C2270223A222573C5
:10178200222C2276223A25647D0A004C45443100FF
:10179200425554544F4E31006B01010000000105C7
:1017A20070010000010001000000000000000000C4
:1017B2004F4B004750494F007003EE020C034003A9
:1017C2002533317320256400455252206770696FBA
:1017D2005F7772697465206E6565642050494E209A
:1017E20056414C55450045525220756E6B6E6F77CF
:1017F2006E2070696E2025730A00455252202564BE
:101802000A002533317300455252206770696F5FB9
:1018120072656164206E6565642050494E004750D0
:10182200494F5F524541442025732025640A000236
:08183200006B017001000000D1
:00000001FF
